:020000040800F2
:10000000C8070020050100082B2700089F250008CD
:100010002927000833100008192C000800000000F0
:10002000000000000000000000000000652800083B
:1000300035100008000000002D270008792800086E
:100040001F0100081F0100081F0100081F01000810
:100050001F0100081F0100081F0100081F01000800
:100060001F0100081F0100081F0100081F010008F0
:100070001F0100081F0100081F0100081F010008E0
:100080001F0100081F0100081F0100081F010008D0
:100090001F0100081F0100081F0100081F010008C0
:1000A0001F010008DD2800081F0100081F010008CB
:1000B0001F010008E9280008000000001F010008D7
:1000C0001F01000800000000000000001F010008E0
:1000D000000000000D2C00081F01000800000000B7
:1000E0001F0100081F0100081F010008DFF810D0E1
:1000F00000F000FB0048004741380008AFF30080E3
:10010000C80700200648804706480047FEE7FEE78C
:10011000FEE7FEE7FEE7FEE7FEE7FEE7FEE7FEE7B7
:10012000D9280008ED000008202A04DB203A21FA33
:1001300002F00021704721FA02F3D040C2F1200200
:10014000914008431946704740EA01039B0703D0DA
:1001500009E008C9121F08C0042AFAD203E011F806
:10016000013B00F8013B521EF9D27047D2B201E0C8
:1001700000F8012B491EFBD270470022F6E710B5AC
:1001800013460A4604461946FFF7F0FF204610BD05
:100190002DE9FE4F804681EA0300C00F0C46009017
:1001A00021F0004123F00045B8EB0200A94105D23F
:1001B0004046214690461C460B46024623F000402E
:1001C000104347D0270DC7F30A00C3F30A5102902A
:1001D000401A019040286BDAC3F3130040F4801BEF
:1001E0000098924620B10023D2EB030A63EB0B0B7D
:1001F00001985946C0F14002504600F0CDF906463C
:100200000D4650465946019A00F0D5F910EB08000A
:100210006141002487EA115284EAE7731A4340D00F
:10022000009A62B3019A012A4FEA075215DC001BBB
:1002300061EB02014FF0004202EA0752CDE90042B1
:10024000001C41F5801132462B4600F0D5F903B071
:10025000BDE8F08F40462146F9E7001B61EB020143
:10026000001C41F5801300185B412018A2F500170F
:1002700047EB030140EAD570B6196D4111E06D08F6
:100280004FEA360645EAC0754FEA0752001B61EB9C
:100290000201001C41F5801149084FEA30000019A5
:1002A000514132462B4603B0BDE8F04F00F095B9FE
:1002B0000098012240000023D0EB020263EBE073C0
:1002C000009821464FEAE074B8EB000061EB0401AE
:1002D000E9E783F000435BE781F0004158E72DE94F
:1002E000FE4F81EA030404F0004421F00041009431
:1002F0004FF0000B23F0004350EA01045ED052EAB5
:1003000003045BD0C3F30A54C1F30A552C44A4F28E
:10031000F3340194A0FB0254C1F3130141F48011A2
:10032000C3F3130343F4801301FB024400FB034EA9
:10033000840A970A44EA815447EA8357A4FB076872
:1003400002958D0A05FB07854FEA932C04FB0C549C
:100350002705029D4FEA065847EA1637B5EB080510
:100360006EEB070C870E920E47EA811742EA831262
:10037000A7FB0201B6EB0B0164EB00042B0D43EA73
:100380000C335E1844EB1C50DA465146E7FB020181
:10039000C5F313044FEA0B3343EA14534FEA043214
:1003A000019C43EA0603A4F10C040294009CCDE9ED
:1003B00000B400F021F903B0BDE8F08F0020014641
:1003C000F9E72DE9F04D81EA030404F0004B21F038
:1003D000004514464FF0000A23F0004150EA0502A0
:1003E00020D054EA01021DD0C5F30A570246C5F3D6
:1003F0001303C1F31300C1F30A5640F4801543F40C
:100400008013A7EB0608101BD64608F2FD3873EBE5
:10041000050002D308F1010801E092185B41B8F130
:10042000000F03DA00200146BDE8F08D00204FF4F4
:100430008011064684460EE0171B73EB050705D3B3
:10044000121B63EB050306434CEA010C49084FEA13
:10045000300092185B4150EA0107EDD152EA0300E7
:1004600012D082EA040083EA0501084305D0101B7C
:10047000AB4106D20122002306E000224FF00043E8
:1004800002E06FF0010253101AEB06004CEB08512A
:1004900010EB0A0041EB0B01BDE8F04D00F09DB8F8
:1004A00070B521F0004303430CD0C1F30A5500247A
:1004B000D5EB040564EB0403D617AD1AB34102DB98
:1004C0000020014670BD201841EB025170BD0EB5F1
:1004D000C10F80EAE0700844CA07002140F23343AC
:1004E0008DE80E000A460B4600F086F803B000BD0A
:1004F0000EB540F2334102910021CDE900110A46C8
:100500000B4600F079F803B000BD30B50B4601464C
:1005100000202022012409E021FA02F59D4205D3A2
:1005200003FA02F5491B04FA02F52844151EA2F14C
:100530000102F1DC30BD2DE9F05F05460020924656
:100540009B4688460646814640241BE02846414695
:1005500047462246FFF7E8FD53465A46C01A9141E6
:1005600010D311461846224600F016F82D1A67EBF4
:1005700001084F4622460120002100F00DF817EB3C
:1005800000094E41201EA4F10104DFDC484631463B
:100590002A464346BDE8F09F202A04DB203A00FAB1
:1005A00002F1002070479140C2F1200320FA03F3CA
:1005B000194390407047202A06DBCB17203A41FAB6
:1005C00002F043EAE07306E041FA02F3D040C2F1E0
:1005D0002002914008431946704710B5141E73F16C
:1005E000000408DA401C41F1000192185B411A43F3
:1005F00001D120F0010010BD2DE9F04D92469B463F
:1006000011B1B1FA81F202E0B0FA80F220329046E4
:10061000FFF7C2FF04460F4640EA0A0041EA0B0119
:1006200053465A46084313D0114653EA010019D0E5
:10063000C8F140025046FFF777FD05460E4650468A
:1006400059464246FFF7A8FF084305D0012004E0C1
:1006500020463946BDE8F08D0020054346EAE076A5
:100660002C4337430A986305E40AA0EB08000022F4
:10067000FD0A44EA47540A3002D500200146E9E762
:10068000010510196941DDE9084500196941BDE816
:10069000F04DA2E7C1F30A52C1F3130140F2FF3358
:1006A00041F480119A4202DA00200146704740F27C
:1006B00033439A42A2F2334202DC5242FFF734BD86
:1006C000FFF76ABF30B5041E71F1000404DB4FF080
:1006D0000044404264EB0101141E73F1000405DB89
:1006E0001C464FF00043524263EB0403994208BF9B
:1006F000904230BD064C074D06E0E06840F0010333
:1007000094E8070098471034AC42F6D3FFF7F2FCA8
:10071000243A0008443A000870B58C1810F8015BC0
:1007200015F0070301D110F8013B2A1106D110F88A
:10073000012B03E010F8016B01F8016B5B1EF9D18E
:100740002B0705D40023521E0DD401F8013BFAE714
:1007500010F8013BCB1A921C03E013F8015B01F87F
:10076000015B521EF9D5A142D8D3002070BD000014
:100770007CB5124800F0F2FA20B1BDE87C4010A030
:1007800002F04CBA0D48D0F8CC00FFF7B1FE6FF084
:100790001702FFF785FE0F4A0F4BFFF7A0FD054636
:1007A0000C4600220D4BFFF79AFDCDE900012A46C9
:1007B00023460BA002F032FA7CBD0000E8020020C4
:1007C0004572726F7220696E2072656164696E672E
:1007D0000A000000D7A3703D0AD713400088C34029
:1007E000566F6C746167652C2043757272656E7408
:1007F0003A20252E31356C662C20252E346C66204F
:1008000066410A0010B52F482D49012341601B2184
:1008100001720521817200F80C3F002180F8AC10B4
:100820004170417141724173017101720173017430
:10083000142280F8882080F88D2080F8922080F89B
:10084000972080F8871080F88C1080F8911080F83D
:10085000961080F82410162280F8252080F8283081
:1008600080F82920022480F82C4080F82D200324D1
:1008700080F8304080F8312080F8231080F827106D
:1008800080F82B1080F82F1080F8223080F8261086
:1008900080F82A1080F82E100B49C0F8B0100B49D0
:1008A000C0F8B4100A49C0F8BC100A49C0F8B81022
:1008B000012001F0D9FFBDE81040024800F062B904
:1008C00050000020E80200204D3900086928000887
:1008D000B5380008A93800082DE9F0412B4D06462F
:1008E0000020D5F8C01088470122DFF8A480570304
:1008F0003946404600F007FD0024002221462348E7
:1009000002F0F2FE04F11000C1B2204800F086FAB5
:10091000641C14F0FF04F0D0002421461DA002F056
:100920007DF901222146194802F0DEFE012000F087
:10093000F3FB04F11000C1B2144800F06FFA85F81F
:10094000B8603146114802F0ACFED5F8C010002066
:10095000884702E018A002F061F9D5F8C40080478A
:100960000128F7D0641C14F0FF04D6D000223946C9
:10097000404600F0C8FCD5F8C0100120884711A0FF
:1009800002F04CF90020BDE8F0810000E8020020F0
:100990000010014070657266726F6D616E63652054
:1009A00063616C696220746F206368616E6E656C50
:1009B0002025640A0000000063616C69622E2E2EFF
:1009C0002E0A0000E6A0A1E58786E7BB93E69D9F7F
:1009D0000A00000010B50121174800F01FFA01219C
:1009E000154800F0B5F8446814A0214602F016F945
:1009F000C4F30211022913D018A002F00FF902214A
:100A00000D4800F00BFA02210B4800F0A1F84168F4
:100A10001DA002F003F9BDE81040074800F07CBAC1
:100A2000214802F0FBF80021034802F03AFE0121C0
:100A3000014800F0F3F9E2E7E80200204144434DA9
:100A40004F44452052656769737465722056616C26
:100A500075653A203058253034780A0041444320E7
:100A60004D6F6465205265676973746572204D6FC0
:100A70006465206E6F74207374616E6462792030D7
:100A800058253178200A000049464D4F44452052F0
:100A9000656769737465722056616C75653A2030BC
:100AA0005825303478200A00E0390008411A4FF008
:100AB000FF32C1F11F018A40C0F11F0022FA00F08D
:100AC000704730B50346002013E01C78802214EAFA
:100AD000020500D00125B5EBD01F4FEA40604FEA78
:100AE000106001D080F007005208F0D1491EC9B251
:100AF0005B1C0029E9D130BD002204E010F8013B65
:100B00005A40491EC9B20029F8D11046704770B545
:100B1000283114460546C9B200F01AF8030013D074
:100B200005210620FFF7C2FF01465868884304F0FC
:100B3000030140EA411058602821284600F042FA9B
:100B4000002800DB002070BD6FF0620070BD000067
:100B500070B500231A46047A0FE000BF456802EB27
:100B6000420655F826508D4205D1406802EB4201FD
:100B700000EB810303E0521CD2B29442EED8184637
:100B800070BD000070B5054600F0ACF8D5F8C01097
:100B900000208847284600F0EFF90446012000F0C5
:100BA000BBFA002C01DA204670BD0121284600F076
:100BB00009FA0028F8DB0221284600F003FA002891
:100BC000F2DB284600F0E8F90028EDDB0621284694
:100BD000FFF7BEFF04000BD1401E70BD072805D0F3
:100BE000C1B2284600F0EEF9002804DB0C3402D034
:100BF00020683028F2D10721284600F00FF907219C
:100C00002846FFF7A5FF0079C0F303100D2805D192
:100C100000224FF40051324800F075FB00242AE016
:100C200005EB84062246717B284602F09BFD0028D6
:100C3000D3DB317C2246284602F0B7FD0028CCDB0E
:100C4000B27BF17B2346284602F0FFFC0028C4DB80
:100C500004EB84004619214696F89420284602F0B9
:100C60007CFC0028B9DB96F8932021462846FFF744
:100C70004EFF641CE4B2287BA042D1D895F8B8108E
:100C8000284602F00EFD0600A7D400241BE000BF9A
:100C900005EB840621462846326B02F07CFC0028D6
:100CA0009BDB96F82F202146284602F02CFC0028DA
:100CB00093DB96F82E202146284602F015FD06000B
:100CC0008BD4641CE4B2287BA042E1D8284600F013
:100CD00023F9D5F8C01001208847304670BD0000C8
:100CE0000010014030B505460721FFF731FF1A4CCF
:100CF000102120602846FFF72BFF60601121284655
:100D0000FFF726FFA06012212846FFF721FFE060D1
:100D100013212846FFF71CFF206101212846FFF719
:100D200017FF606102212846FFF712FFA061202112
:100D30002846FFF70DFFE06128212846FFF708FF4E
:100D4000206230212846FFF703FF606238212846E1
:100D5000FFF7FEFEA06230BD100000203EB5044645
:100D60000020019002900090D4F8C0108847D4F879
:100D7000C400804730B1D4F8C010012088474FF03C
:100D8000FF303EBDD4F8C820042102A890479DF84A
:100D90000A008DF800009DF809008DF801009DF80B
:100DA00008008DF80200BDF80010ADF804108DF8B1
:100DB00006009DF80B006FF07F4100F003050198DD
:100DC00090FBF1F0FFF783FB0022124BFFF787FA4D
:100DD000114A02EBC502C2E9000135B1012D08D06C
:100DE000022D0AD0032D0CD00EE00198C4F8CC00DF
:100DF0000AE00198C4F8D00006E00198C4F8D400D5
:100E000002E00198C4F8D800D4F8C0100120884747
:100E100000203EBD00001440C80200202DE9FF471D
:100E20004FF0000A0646CDF808A0D046CDF80CA039
:100E3000CDF800A0CDF804A0FFF78AFE040019D079
:100E4000207800F03F0040F040008DF80800707AF4
:100E50000028A06800D0401C401C81B2D6F8BC20FD
:100E600002A89047070007D4707AE94602AD01282E
:100E700005D01DE04FF0FF3004B0BDE8F0872078CA
:100E8000494600F03F0040F040008DF8000001208E
:100E900003E02A5C0A54401CC0B2A268921C824241
:100EA000F7DC207A801CC1B24846FFF70AFE804674
:100EB000707A022818D12078494600F03F0040F0AF
:100EC00040008DF80000012003E02A5C0A54401C19
:100ED000C0B2A268921C8242F7DC207A801CC1B2A8
:100EE0006846FFF709FE8046B8F1000F02D06FF0A8
:100EF0000100C1E7C4F804A0A1680120491C07E073
:100F00006268120262602B5C401C1A44C0B26260CC
:100F10008142F5DC3846AFE710B504460721FFF7FC
:100F20007DFF10212046FFF779FF11212046FFF7B2
:100F300075FF12212046FFF771FF13212046FFF7AE
:100F40006DFF01212046FFF769FF02212046FFF7D0
:100F500065FF20212046FFF761FF28212046FFF78B
:100F60005DFF30212046FFF759FF2046BDE81040C5
:100F70003821FFF753BF00001CB505A2D2E90012CB
:100F8000CDE90012D0F8BC200821684690471CBD6E
:100F9000FFFFFFFFFFFFFFFF10B504460221FFF731
:100FA000D7FD20B14068010704D5012007E04FF0CC
:100FB000FF3010BD400701D5022000E00020607224
:100FC000002010BD7CB5064600200090054601902B
:100FD0003046FFF7BDFD040007D020786A4600F0D8
:100FE0003F008DF80000606807E04FF0FF307CBDE7
:100FF000491B505400126D1CEDB2A168A942F7DCE8
:10100000707A48B1207A401CC1B21046FFF759FDF2
:10101000A2680DF101015054707A0028A06801D037
:10102000801C00E0401C81B2D6F8BC206846904786
:101030007CBDFEE7704772B6FEE710B590F8211050
:101040000022022905D00421816380F8202001209C
:1010500010BD01680B6823F00E030B6001680B687C
:1010600023F001030B6090F84030C46B012101FABA
:1010700003F3636080F8211080F82020104610BD33
:1010800010B590F821100024022903D004218163B7
:1010900001243DE001680A6822F00E020A6001683E
:1010A0000A6822F001020A601A4A0168914201D1DD
:1010B000012121E0174A1432914201D110211BE095
:1010C000144A2832914201D1891515E0114A3C3267
:1010D000914201D189140FE00E4A5032914202D15F
:1010E0004FF4803108E00B4A6432914202D14FF450
:1010F000801101E04FF08071064A083A51600121E9
:1011000080F82110002180F82010416B01B1884740
:10111000204610BD0800024070B5044600F0F8F803
:101120000546601C02D004480078044400F0F0F842
:10113000401BA042FAD370BD000000202DE9F84FFB
:10114000DFF89C910024A9F1040B23460F2709F135
:10115000040AABF1040EBBE00125A5402A40AA42D7
:1011600076D1DFF880C14E68A6EB0C0866452BD01F
:101170000DDC032E34D005DC36B3012E19D0022E3F
:101180002FD11BE0112E16D0122E2AD119E0B8F55E
:10119000881F19D006DCB8F5803F15D0B8F5801F40
:1011A0001FD111E0B8F5001F0ED0B8F5041F18D1FB
:1011B0000AE0CB6815E0CB681B1D12E0CB68083352
:1011C0000FE0CB680C330CE08B682BB1012B4FF098
:1011D000080303D0456104E0042302E0056100E058
:1011E0000023FF2A01D8064601E000F104064FEA79
:1011F000840501D9A5F12005D6F8008007FA05FC81
:1012000028EA0C0803FA05F548EA0508C6F8008044
:101210004D68ED005BD5344DAE6946F00106AE6118
:10122000AD6924F0030605F0010500952F4D06EB8E
:10123000050CDCF80850A607360F07FA06F825EA71
:101240000805DFF8AC80404503D14FF0000810E0FE
:101250003DE0DFF8A080404502D14FF0010808E0F2
:10126000DFF89480404502D14FF0020801E04FF0D2
:10127000030808FA06F848EA0508CCF808804D6823
:10128000D9F80060ED024D4601D5164300E09643C3
:101290002E604D68DAF80060AD02554601D5164360
:1012A00000E096432E604D68DBF80060AD035D46BC
:1012B00001D5164300E096432E604D68DEF80060CD
:1012C000ED03754601D5164300E096432E60641C7D
:1012D0000A6832FA04F57FF43FAFBDE8F88F0000EA
:1012E00008040140000011100010024000000140FD
:1012F00000080140000C01400010014080680840D7
:1013000000D0012070470AB1016170470904FBE772
:101310000148806870470000000000200248816892
:10132000027811448160704700000020074810B522
:10133000016841F010010160032000F08FF80020E7
:1013400000F006F800F03EF8002010BD002002403A
:1013500000B5014687B000221D2000F05FF81D2077
:1013600000F04EF81348C16941F00201C161C06943
:1013700005A900F002000690684600F017F900F099
:1013800035F90D494000B0FBF1F10D480B4A491EFB
:101390000260416040F2E7320021C0E90321816030
:1013A00000F060FD10B1012007B000BD044800F05E
:1013B000A5FDF9E70010024040420F000004004084
:1013C000800200200C4808B5816941F0010181616B
:1013D000816901F001010091C16941F08051C16151
:1013E000C06900F0805000900448416821F0E0613D
:1013F00041F00071416008BD001002400000014052
:10140000002809DB00F01F02012191404009800003
:1014100000F1E020C0F8001170470000F0B40E4B5E
:101420001B680C46C3F30223C3F10705042D00D942
:101430000425191D072901D2002300E0DB1E012627
:1014400006FA05F1491E214099409E40761E16403D
:101450003143F0BC01F0F2BB0CED00E0064900F0B6
:10146000070208684FF6FF03184040EA0220034ACB
:1014700010430860704700000CED00E00000FA0522
:101480002DE9F0470F46050061D0434E306800F06B
:101490000700B84209D2306820F0070038433060B6
:1014A000306800F00700B84251D128683B4C8107F2
:1014B00012D5400703D5606840F4E060606028788A
:1014C000000703D5606840F4605060606068A968F8
:1014D00020F0F000084360602878C00728D06868D2
:1014E000012810D02168022810D0890700292EDA9F
:1014F000616821F0030101436160FFF709FF804645
:1015000041F288390DE021688903EFE78901EDE7B1
:10151000FFF7FEFEA0EB0801494502D90320BDE814
:10152000F0876068696800F00C00B0EB810FEFD1C4
:10153000306800F00700B8420BD9306820F007008F
:1015400038433060306800F00700B84201D0012015
:10155000E5E72878400705D56068E96820F4E06091
:10156000084360602878000706D56068296920F480
:10157000605040EAC100606000F058F86168084AB5
:10158000C1F30311515CC840064908600648006871
:10159000FFF7DEFE0020C2E70020024000100240FC
:1015A0008E3900080C000020040000200F22026089
:1015B0000C4A536803F003034360536803F0F003DD
:1015C0008360536803F4E063C36052684FF4E063E0
:1015D00003EAD20202610448006800F007000860D4
:1015E00070470000001002400020024004480549F6
:1015F00000684968044AC1F30221515CC840704741
:101600000C000020001002409E39000804480549E3
:1016100000684968044AC1F3C221515CC840704760
:101620000C000020001002409E3900080E4A51684C
:101630000E4801F00C03042B11D0082B0FD10C48DD
:10164000C1F38343C903C05C0AD55168084AC1F39A
:101650004041921E515C054A5043B0FBF1F0704787
:1016600004494843704700000010024000127A000D
:101670007E39000800093D002DE9F84F040070D0C4
:101680002078C04DC00749D06868C0F381000128A8
:1016900007D06868C0F38100022809D16868C003D8
:1016A00006D52868800339D560680028E7D035E082
:1016B0006068B0F5803F0BD010B1B0F5A02F11D00D
:1016C000286820F480302860286820F4802002E018
:1016D000286840F480302860606890B1FFF718FEF9
:1016E00006460AE0286840F480202860F0E700BF42
:1016F000FFF70EFE801B642873D828688003F7D597
:101700000CE0FFF705FE064605E000BFFFF700FE10
:10171000801B6428F0D828688003F7D420789A4E7C
:1017200080074FF001094FF0000839D5686810F0C4
:101730000C0F07D06868C0F38100022809D16868DF
:10174000C00306D42868800714D52069012808D171
:1017500010E02069B0B1C6F80090FFF7D9FD074648
:1017600005E00AE1FFF7D4FDC01B0228C4D82868B1
:101770008007F7D52868616920F0F80040EAC100C9
:1017800028600DE0C6F80080FFF7C2FD074604E0C0
:10179000FFF7BEFDC01B022823D828688007F7D4B6
:1017A000207800072CD57948A169D9B1C0F80090FC
:1017B000FFF7AEFD074604E0FFF7AAFDC01B0228B5
:1017C0000FD8686A8007F7D571484FF4FA5100685E
:1017D000B0FBF1F0009000BF0098411E0091FAD2DA
:1017E0000EE080E0C0F80080FFF792FD074604E0BD
:1017F000FFF78EFDC01B022875D8686A8007F7D4F2
:101800002078400760D5E8690027C00008D4E8695F
:1018100040F08050E861E869012700F080500090B6
:101820005C480168C90513D40168834641F480719E
:101830000160FFF76DFD824606E000BFFFF768FD1F
:10184000A0EB0A0064284ED8DBF80000C005F5D5EF
:10185000E06801280AD008B1052813D0286A20F0D2
:1018600001002862286A20F0040002E0286A40F0A3
:1018700001002862E06841F2883B98B1FFF748FD1B
:1018800082460BE0286A40F004002862EEE700BFC1
:10189000FFF73EFDA0EB0A0159455AD8286A800798
:1018A000F6D50CE0FFF734FD824605E0FFF730FD8A
:1018B000A0EB0A0159454CD8286A8007F6D41FB11D
:1018C000E86920F08050E861E06988B36968C1F395
:1018D0008101022944D00228C6F8608004D0FFF7B5
:1018E00017FD044638E034E0FFF712FD074604E038
:1018F000FFF70EFDC01B02282BD828688001F7D403
:10190000206AB0F5803F05D16868A16820F40030F6
:1019100008436860D4E908010843696821F4741138
:1019200008436860C6F86090FFF7F2FC044606E0E2
:1019300025E000BFFFF7ECFC001B022809D828684F
:101940008001F7D51BE000BFFFF7E2FC001B022877
:1019500002D90320BDE8F88F28688001F4D40EE096
:101960000128F7D06868226A00F48031914204D1DE
:10197000616A00F47010884201D00120EAE700207B
:10198000E8E70000001002400000424280044242AA
:101990000C0000200070004070B5040009D0606A9F
:1019A000002540B125616561A56294F8510040B100
:1019B0000CE0012070BD6068B0F5827FF4D0E56175
:1019C000F2E784F85050204600F040F8022084F8F6
:1019D00051002068016821F040010160A088218940
:1019E00000F4827001F404410843A18901F400610C
:1019F0000843217C01F002010843217D01F001012F
:101A00000843218B01F400710843217F01F0380164
:101A1000084394F8201001F080010843218D01F45F
:101A20000051084321680860A069042101EA1040C0
:101A3000216848602068C16921F40061C161656561
:101A4000012084F85100002070BD000030B585B041
:101A5000002400940194029403940068144988427D
:101A600023D11448816941F480518161816901F475
:101A700080510491816941F00401816180690E4DBA
:101A800000F004000490A0200090022001900320A8
:101A9000039069462846FFF751FB4020CDE900043A
:101AA000694628460294FFF749FB05B030BD0000A7
:101AB0000030014000100240000801402DE9F84FBD
:101AC000044690F85100984616460F460025012816
:101AD00001D0022598E060684FF0040BB0F5827FDA
:101AE00001D1A068F8B194F85000012826D04FF039
:101AF000010984F85090FFF70BFC8246002F7FD03D
:101B0000002E7DD084F851B000206065A763A687C1
:101B1000E6872063A086E08620646064A068B0F554
:101B2000004F0DD016E084F851B013460A46204607
:101B3000CDF8008000F06DF8BDE8F88F0220FBE7DB
:101B40002068016821F0400101602068016821F4EB
:101B50008041016020680168490603D4016841F0B2
:101B600040010160E068D8B13BE020688168C907A6
:101B700009D0007BA16B0870A06B401CA063E08FB4
:101B8000401EE0870CE0FFF7C3FBA0EB0A014145D4
:101B900003D3B8F1FF3F03D006E0B8F1000F03D044
:101BA000E08F0028E1D11FE003252BE02068816849
:101BB000C90709D0C068A16B0880A06B801CA06316
:101BC000E08F401EE0870CE0FFF7A2FBA0EB0A01CC
:101BD000414503D3B8F1FF3F03D0E5E7B8F1000F6B
:101BE000E2D0E08F0028E1D152464146204600F085
:101BF0009EFD08B120206065606D00E000E008B146
:101C0000012501E084F85190002084F85000284616
:101C100092E72DE9FF4F81B0044690F8500000266E
:101C20000E9F1D4693464FF0010901280FD04FF03B
:101C3000010A84F850A0FFF76BFB804694F851002E
:101C4000616801280DD0B1F5827F08D103E0022040
:101C500005B0BDE8F08FA16809B9042801D00226BB
:101C6000C9E00298002865D0BBF1000FFBD0002D21
:101C7000F9D094F85100042802D0052084F85100CE
:101C800000206065C4F838B0E587A5870299216314
:101C9000E586A5862064606420680168490603D44F
:101CA000016841F040010160E068B0F5006F6068D4
:101CB00003D0F0B3012D47D081E008B1012D3CD114
:101CC000206B21680088C860206B801C2063E08E38
:101CD000401EE08631E02068816889070FD5E18EDB
:101CE00069B1B9F1010F0AD1216B0988C160206B7C
:101CF000801C2063E08E401EE0864FF000092068C3
:101D00008168C9070CD0E18F51B1C068A16B088010
:101D1000A06B801CA063E08F401EE0874FF001099C
:101D2000FFF7F6FAA0EB0800B84206D3781C04D0FF
:101D300001E009E05BE003265BE0E08E0028CAD109
:101D4000E08F0028C7D140E0206B2168007808733D
:101D5000206B401C2063E08E401EE0862FE0206850
:101D6000816889070FD5E18E69B1B9F1010F0AD1F8
:101D7000216B09780173206B401C2063E08E401EAC
:101D8000E0864FF0000920688168C9070CD0E18F18
:101D900051B1C068A16B0870A06B401CA063E08FBC
:101DA000401EE0874FF00109FFF7B2FAA0EB0800F0
:101DB000B84202D3781C02D0BAE7002FB8D0E08E28
:101DC0000028CCD1E08F0028C9D1424639462046B0
:101DD00000F0DBFC18B10126202060650BE0A06854
:101DE00018B92068C16880680090606D08B101264C
:101DF00001E084F851A0002084F85000304627E725
:101E00007047704770B590F83C20012A23D0012418
:101E100080F83C40022280F83D2003685A689D68A3
:101E200022F070060A6832435A600C4B02689A42EC
:101E300005D0B2F1804F02D0094B9A4204D14968D3
:101E400025F080031943916080F83D40002180F81F
:101E50003C10084670BD022070BD0000002C0140FF
:101E60000004004010B5040003D094F83D0010B108
:101E700007E0012010BD002084F83C00204600F05F
:101E80001FF8022084F83D00211D206800F032FD7B
:101E9000012084F8460084F83E0084F83F0084F86E
:101EA000400084F8410084F8420084F8430084F83C
:101EB000440084F8450084F83D00002010BD000077
:101EC00008B500680B49884212D10B48816941F47A
:101ED000006181618069002200F400600090114679
:101EE0001920FFF79BFABDE808401920FFF788BAD0
:101EF00008BD0000002C01400010024090F83D1089
:101F0000012901D001207047022180F83D100168AD
:101F1000CA6842F00102CA6000680A49884205D0D6
:101F2000B0F1804F02D00849884204D1816801F0A5
:101F30000701062903D0016841F00101016000207A
:101F400070470000002C01400004004070B50446BA
:101F500090F83C000025012817D0012684F83C6049
:101F6000022084F83D002068826822F0770222F483
:101F70007F4282600868502838D00DDC20284FD07E
:101F800005DC90B3102811D14AE0022070BD302842
:101F900046D040280AD13BE060282FD070280DD0D1
:101FA000B0F5805F03D0B0F5005F12D0012584F852
:101FB0003D60002084F83C00284670BDCB68D1E924
:101FC0000121206800F0C4FC2068816841F077019D
:101FD00009E0CB68D1E90121206800F0B9FC206854
:101FE000816841F480418160E1E719E0CA6849688D
:101FF000206800F0BFFC5021206806E0CA684968EC
:10200000206800F0C8FC6021206800F0ABFCCEE73F
:10201000CA684968206800F0ADFC40212068F4E7F8
:10202000226801461046F0E7704770B50446006824
:1020300001694FF00005C943890715D4C168C94338
:10204000890711D4E91E0161012020772068806989
:102050008007204602D0FFF7E7FF04E000F098F881
:10206000204600F096F8257720680169C9434907A2
:1020700017D4C168C943490713D46FF00401016143
:10208000022020772068806910F4407F204602D02B
:10209000FFF7CAFF04E000F07BF8204600F079F873
:1020A000257720680169C943090716D4C168C94367
:1020B000090712D46FF0080101610420207720681D
:1020C000C0698007204602D0FFF7AEFF04E000F0B1
:1020D0005FF8204600F05DF8257720680169C94364
:1020E000C90617D4C168C943C90613D46FF01001DB
:1020F0000161082020772068C06910F4407F2046E5
:1021000002D0FFF791FF04E000F042F8204600F013
:1021100040F8257720680169C943C90708D1C1681B
:10212000C943C90704D1891E0161204600F032F875
:1021300020680169C943090609D4C168C943090671
:1021400005D46FF0800101612046FFF759FE206839
:102150000169C943490609D4C168C943490605D480
:102160006FF040010161204600F01EF8206801690F
:10217000C94389060BD4C168C943890607D46FF0E7
:10218000200101612046BDE87040FFF73ABE70BDF6
:102190007047704700680349884201D1FFF7BEB815
:1021A000704700000004004070477047704700000F
:1021B000F8B5016804460868CA684B6910F00F0F4B
:1021C0004FF0000559D003F0010602F49077374331
:1021D00065D0C10705D0D10503D5616C41F001017F
:1021E0006164410705D5D90703D0616C41F0020154
:1021F0006164810705D5D90703D0616C41F0040102
:102200006164010707D502F02001314303D0616CFE
:1022100041F008016164616C00293AD0800604D560
:10222000900602D5204600F0F7FB20684069616CFB
:10223000C0F38010090700D460B3204600F0C5FB4E
:1022400020684069400621D52068143050E8001FFE
:1022500021F0400140E80012002AF5D1E06BA8B15E
:102260006D494163E06BFEF70BFF002811D0E06B76
:10227000416B01B0BDE8F040084783060FD59306D7
:102280000DD52046BDE8F84000F0C6BB2046FFF75C
:102290008DFFF8BD2046FFF789FF6564F8BD266B0A
:1022A0002023012E7CD1C6067AD5D60678D50868BB
:1022B0004868009048694FF00206400640D5E16B3F
:1022C000086840680004000CE8D0A28D8242E5D97D
:1022D000E085886920282DD020680C3050E8001F48
:1022E00021F4807140E80012002AF5D120681430F2
:1022F00050E8001F21F0010140E80012002AF5D14A
:102300002068143050E8001F21F0400140E800121E
:10231000002AF5D184F84230256320680C3050E85B
:10232000001F21F0100140E80012002AF5D1E06BF7
:10233000FEF783FE6663A08DE18D401A81B22AE02C
:10234000A08DE18D401A81B2E08D0028A6D0002931
:10235000A4D022680C3252E8000F20F4907042E8BA
:102360000007002FF5D12068143050E8002F22F02C
:10237000010240E80027002FF5D184F842302563A0
:1023800020680C3050E8002F22F0100240E80023B3
:10239000002BF5D166632046FFF707FFF8BDFFE786
:1023A00005062BD5150629D594F841002128F5D12D
:1023B000A068B0F5805F01D12069B0B1206A411CEE
:1023C0002162216800784860E08C401E0004000C07
:1023D000E084E3D12068C16821F08001C1602068F9
:1023E000C16841F04001C160D8E7206A0088C0F3AD
:1023F00008004860206A801C2062E5E74006CDD5D1
:102400005006CBD5CA68204622F04002CA6084F844
:10241000413000F0C3F8C1E7BB29000870B50400E3
:1024200004D094F84100002510B106E0012070BDF1
:1024300084F84050204600F023F8242084F841001E
:102440002068C16821F40051C160204600F046FBBD
:102450002068016921F4904101612068416921F0FF
:102460002A0141612068C16841F40051C16065647E
:10247000202084F8410084F842006563002070BD8C
:1024800030B585B000240094019402940394006850
:10249000184988422CD11848816941F480418161F2
:1024A000816901F480410491816941F004018161F5
:1024B0008069124D00F0040004904FF40070009009
:1024C000022001900320039069462846FEF736FE5D
:1024D0002815CDE90004694628460294FEF72EFE31
:1024E000002211462520FEF799FF2520FEF788FFE0
:1024F00005B030BD00380140001002400008014026
:1025000070472DE9F843044690F841001F461646EF
:102510000D46202802D00220BDE8F8837DB176B1B7
:1025200000206064212084F84100FEF7F1FEA684BB
:102530008046E684A068B0F5805F02D003E0012009
:10254000EAE7206910B12E4600250EE000260CE0D7
:102550008021204600F01EFBA0B9AEB116F8010B99
:1025600021684860E08C401EE084E08C43464FF0D8
:10257000000200970028EBD14FF04001204600F008
:1025800009FB30B10320C7E735F8020BC0F30800A0
:10259000E6E7202084F841000020BDE77047FEE711
:1025A000F0B585B000200090019002900390214882
:1025B000816941F010018161816901F0100104918C
:1025C000816941F020018161816901F0200104915C
:1025D000816941F004018161816901F00401049184
:1025E000816941F0080181618069134E00F00800A3
:1025F0004FF400540490002221463046FEF783FE3B
:102600000E4F002201213846FEF77DFE0094012482
:102610000225694630460194CDE90245FEF78EFD5C
:102620000094694638460194CDE90245FEF786FDDF
:1026300005B0F0BD0010024000100140000C014048
:10264000104810B50E4901604FF4827141600021BD
:1026500002228160C0E903120122426152028261BA
:102660002822C0E90721416281620A21C162FFF785
:1026700093F9002803D0BDE81040FEF7DCBC10BD84
:10268000003001409801002010B586B000241748A2
:102690000094019402940394049413490594C0E9AE
:1026A00000144FF6FF71C0E9024104614461846186
:1026B000FFF7D8FB08B1FEF7BEFC4FF48050009046
:1026C00069460A48FFF742FC08B1FEF7B4FC0494DF
:1026D00004A906480594FFF795FB002801D0FEF7F2
:1026E000AAFC06B010BD0000002C0140F001002043
:1026F0000C4810B50A4901604FF4E13141600021F6
:1027000081600C22C160C0E904128161C161FFF7E0
:1027100085FE002803D0BDE81040FEF78CBC10BD3C
:102720000038014038020020FEE7FEE77047F8B5A8
:10273000044640684FF48273984217D1A0684FF462
:102740008065B0F5004F01D0A8420FD1206806681F
:1027500026F0400606606068984207D1A068A8424B
:1027600004D100920B460022012103E000920B46A7
:1027700000228021204600F019F8002804D0606D66
:1027800040F0200060650320F8BD38B50B4600928C
:1027900004460022802100F009F8002804D0606D72
:1027A00040F020006065032038BD00002DE9F843AB
:1027B0001E46914688460446089DFEF7A9FD401B2B
:1027C000351AFEF7A5FD074625480068C0F3CB3053
:1027D000684338E0701C37D0FEF79AFDC01BA84252
:1027E00003D215B1009860B32CE02068416821F055
:1027F000E00141606068B0F5827F0BD1A068B0F560
:10280000004F02D0B0F5806F04D12068016821F03C
:1028100040010160A06AB0F5005F09D1206801683D
:1028200021F4005101602068016841F40051016009
:10283000012084F85100002084F850000320BDE8F6
:10284000F8830025401E00902068816838EA010066
:1028500004D000214945BDD10020F0E70121F9E76E
:102860000C00002070470000024601210148FEF7DD
:102870004ABD0000000C0140704730B58FB02821E0
:102880006846FDF77AFC14210AA8FDF776FC0121C1
:102890000804CDE900100024029402250491CDE93A
:1028A00007504FF4E01009906846FEF7E5FE08B1C6
:1028B00072B6FEE70F20CDE90A054FF48060CDE93E
:1028C0000C4002210AA80E94FEF7DAFD002801D080
:1028D00072B6FEE70FB030BD704700000148FFF749
:1028E000A4BB0000F00100200148FFF79EBB0000E0
:1028F0008002002070B50268134B144C4FF08046E4
:10290000984203D0B04201D0A04203D122F070051A
:102910004A682A43984203D0B04201D0A04203D172
:1029200022F44074CA6822434C6922F08002224398
:1029300002608A68C2620A688262984201D10969AB
:1029400001630121416170BD002C01400004004081
:1029500010B5846842EA032224F47F440A432243E8
:10296000826010BD826822F070020A4342F00701C3
:102970008160704710B5036A046A24F001040462A0
:10298000846924F0F00444EA021423F00A020A43A2
:102990008461026210BD10B5036A046A24F0100459
:1029A0000462846923F0A00324F4704444EA0232F0
:1029B00043EA01118261016210BD10B5406A002135
:1029C000C185C184FFF7F2FB10BD01680C3151E8ED
:1029D000002F22F4907241E80023002BF5D101680A
:1029E000143151E8002F22F0010241E80023002BAE
:1029F000F5D1016B012909D101680C3151E8002F93
:102A000022F0100241E80023002BF5D1202180F8AC
:102A1000421000210163704708B590F84210222946
:102A200001D0022008BD82684FF480539A4201D140
:102A3000016921B1816A9A421BD04AB10AE0026859
:102A4000816A5268C2F308020A80816A891C08E020
:102A5000026972B10268526802F07F020A70816AEC
:102A6000491C8162C18D491E0904090CC18503D02E
:102A70001BE002685268F1E70168CA6822F0200290
:102A8000CA600168CA6822F48072CA6001684A6933
:102A900022F001024A61202180F8421000214163A6
:102AA000026B012A03D0FFF72BFD002008BD016354
:102AB00001680C3151E8002F22F0100241E8002398
:102AC000002BF5D101680A68D20602D50A68496868
:102AD0000091818DFFF769FBE7E7000070B50446C0
:102AE00000680169E26821F44051114301612169E4
:102AF000A0680843616908432168CA6841F20C6311
:102B00009A430243CA6020684169A26921F4407176
:102B1000114341611E492068884202D1FEF776FDCB
:102B200001E0FEF763FD00EBC00101EB00126068FD
:102B300064218000B2FBF0F3B3FBF1F36FF01806F1
:102B40007343B2FBF0F5B2FBF0F605EB83053223DD
:102B500003EB0515B5FBF1F5B6FBF1F605F0F00555
:102B600005EB0615B2FBF0F6B2FBF0F0B0FBF1F0AE
:102B70006FF01802504306EB800003EB0010B0FB2F
:102B8000F1F0216800F00F002844886070BD00005B
:102B9000003801402DE9F041984617460E4604469C
:102BA000069D27E0681C25D02DB1FEF7B1FBA0EBF8
:102BB0000800A8421ED920680C3050E8001F21F4FC
:102BC000D07140E80012002AF5D12068143050E896
:102BD000001F21F0010140E80012002AF5D1202059
:102BE00084F8410084F84200002084F8400003206B
:102BF000BDE8F0812068006836EA000004D00020BB
:102C0000B842CFD00020F3E70120F9E70148FFF7F1
:102C1000CFBA000038020020FEE700000FB4054BD9
:102C200010B503A9044A029800F0EAF810BC5DF858
:102C300014FB000021380008940100200907090E48
:102C4000002804DB00F1E02080F80014704700F059
:102C50000F0000F1E02080F8141D704702E008C862
:102C6000121F08C1002AFAD170477047002001E006
:102C700001C1121F002AFBD1704700002DE9FF5F40
:102C800082B00021DDE90430020DDDF840B00343DD
:102C900018D044F61050A2F2FF3242431514119896
:102CA00001281FD0A5EB0B00401C5FEA000A4FF083
:102CB00000064E4FDFF83891B046504615D5CAF1A0
:102CC000000413E0119801244AA3012801D16FEAFE
:102CD0000B010298119AC0E90031C0E9024206B026
:102CE000BDE8F09FCBF10000DFE704460021404A39
:102CF000491842EB0450CDE9001012E0E00707D07C
:102D000032463B4640464946FDF7E9FA8046894649
:102D100032463B4610461946FDF7E1FA06460F4695
:102D20006410002CEAD1DDE90401DDE90023BAF1E9
:102D3000000F06DAFDF7D3FA42464B46FDF7CFFA0D
:102D400005E0FDF73EFB42464B46FDF73AFB0446E5
:102D50000E460022284BFDF7B5FC03D84FF0FF309C
:102D6000014607E00022254B20463146FDF710FAC8
:102D7000FDF790FC102409E0002C0ADB0A22002356
:102D8000FDF7D9FB039B30321A55641E50EA01024D
:102D9000F2D1641C039AC4F111031444119A012A5C
:102DA00003D0012208430DD10AE0084304D00020DB
:102DB0004FF0110B119072E7A3EB0B056D1E0DE0A8
:102DC0005B4504DD4FF0000205F1010504E003DA84
:102DD0004FF00002A5F10105002AECD002981199EC
:102DE000C0E90231C0E9004579E700000000144065
:102DF0000000F03F300000000000F0430000E03F22
:102E00002DE9FF4F95B09A46884606460025EEE12B
:102E1000252877D100242746F94A0121039400E0B0
:102E2000044316F8013F203B01FA03F01042F7D1AA
:102E300030782A2811D06FF02F033078A0F13002BB
:102E4000092A16D8039A44F0020402EB820203EB2B
:102E500042021044761C0390EFE758F8042B0392CB
:102E6000002A03DA504244F40054039044F0020470
:102E7000761C30782E2816D116F8010F44F0040481
:102E80002A280DD06FF02F023078A0F13003092BE3
:102E900009D807EB870302EB4303C718761CF3E757
:102EA00058F8047B761C30786C280FD006DC4C2850
:102EB00017D068280DD06A2814D104E0742810D0E7
:102EC0007A280FD10DE044F400140AE044F4801491
:102ED00001E044F440147278824202D104F5801477
:102EE000761C761C307866280BD013DC582877D0F7
:102EF00009DC002875D04528F6D04628F4D04728AC
:102F00001AD193E118E0632835D0642879D0652878
:102F100012D18BE1702873D008DC6728F1D06928C2
:102F20006FD06E280DD06F2806D1ACE073282CD05E
:102F3000752874D0782853D05246179990476D1C45
:102F400054E1C4F30250022809D003280DD0D8F868
:102F5000001004280DD00D6008F1040846E1D8F8EF
:102F60000010EA17C1E90052F6E7D8F800100D800A
:102F7000F2E70D70F0E718F8041B8DF80010002040
:102F80008DF80100EB46012003E058F804BB4FF038
:102F9000FF3061074FF0000102D40DE009F101019B
:102FA0008946B9420FDA8145F8DB1BF80910002980
:102FB000F4D108E009F1010189468142FADB1BF8EE
:102FC00009100029F6D103985346A0EB09072146C2
:102FD0003846179A00F080FA284400EB090507E00C
:102FE00044E008E10DE01BF8010B524617999047A9
:102FF000B9F10109F7D2534621463846179AF2E053
:1030000039E00A21C4F302524FF0000B0091022A6A
:1030100006D058F8040BC117032A09D00AE023E0B0
:1030200008F1070020F00702F2E80201904605E0EF
:1030300000B2C117042A01D140B2C117002906DA33
:103040000A460021404261EB02012D2202E02205E6
:1030500004D52B228DF80420012203E0E20701D0E1
:103060002022F7E7914657E00A2100E010214FF0B7
:10307000000B00910BE010214FF0000B44F0040412
:103080000827009103E008204FF0000B0090C4F3E4
:103090000252022A05D058F8040B0021032A08D056
:1030A00008E008F1070020F00702F2E8020190466C
:1030B00003E080B2042A00D1C0B24FF00009220719
:1030C0002AD53278702A07D0DDF800C08CF0100CB9
:1030D0005CEA0B0C05D00EE040228DF804200122A2
:1030E00008E050EA010306D030238DF804308DF853
:1030F000052002229146009B83F0080353EA0B034C
:103100000AD150EA010201D1620705D530228DF8BB
:1031100004204FF001097F1E3278582A04D039A2CA
:103120000C920CAA02920BE03BA2F9E75B46009AD4
:10313000FDF701FA0C9B9B5C029A521E02921370DF
:1031400050EA0102F2D1029804A9081A00F1200BFA
:10315000600702D524F4803400E001275F4502DDDA
:10316000A7EB0B0000E0002000EB0B0100900398A0
:103170004944401A0390E00306D453462146179A67
:10318000039800F0A9F90544002706E001A852467B
:10319000C05D179990476D1C7F1C4F45F6DBE0031F
:1031A0000CD553462146179A039800F095F905442B
:1031B00004E030205246179990476D1C0099481E34
:1031C00000900029F5DC08E0029802995246007848
:1031D000491C0291179990476D1CBBF10001ABF19E
:1031E000010BF1DC5BE100F065F90544761C3078F9
:1031F00000287FF40DAE19B02846BDE8F08F00001E
:1032000009280100303132333435363738396162BC
:103210006364656600000000303132333435363780
:10322000383941424344454600000000600700D45D
:10323000062708F1070020F00700F0E80223804687
:1032400003F0004C5FEA0C0001D097A009E02005D4
:1032500001D596A005E0E00701D095A001E0AFF20E
:103260004C001390307823F0004365280CD006DC26
:10327000452809D046281DD047287FD13BE0662845
:1032800018D067287AD136E00021112F01DB1120F8
:1032900000E0781CCDE9000104A90CA8FFF7EEFCC2
:1032A000DDE90D010C9A4FF0000B07F101091092B6
:1032B00000914EE04FF000400097CDE9011004A9C5
:1032C0000CA8FFF7DBFCDDE90D020C9B0F994FF01A
:1032D000000B91461093009211B9791C00EB010983
:1032E000B7EB090003D4C0F1FF3B07F10109A9EBDB
:1032F0000700019042E0012F00DA01270021112F81
:1033000001DD112000E03846CDE9000104A90CA838
:10331000FFF7B4FCDDE90D010C9A00914FF0000BB2
:10332000B946109221070FD4009A4A4503DA914614
:1033300001E0A9F10109B9F1010F05DD109AA9F128
:103340000101515C3029F4D0B84202DA10F1040FC7
:1033500003DA0121CDE9011010E0002803DC8344E9
:10336000A9EB000102E0411C494500DD8946A0EBC4
:103370000B00401C01904FF000400290200705D444
:103380000198484502DB4FF0FF30019000208DF896
:103390004B0002980DF14B07B0F1004F25D00220F1
:1033A0000C902B200D90029800280CDA40420290DD
:1033B0002D200D9007E00A210298FDF7A6F8303184
:1033C000029007F8011D0C99481E0C900029F2DCB0
:1033D00002980028EFD1791E0D980870307800F01F
:1033E000200040F0450007F8020D11A8C01BC01DC9
:1033F00002901398007800B1012000EB09010198B8
:1034000001EBE071029801440398401A401E0390BA
:10341000E00306D453462146179A039800F05CF85F
:1034200005441398007818B15246179990476D1CBF
:10343000E00323D553462146179A039800F04CF831
:1034400005441BE0BBF1000F07DB0098584504DD85
:103450001098179910F80B0001E017993020524688
:10346000904701980BF1010B401E05F101050190F9
:1034700004D12E205246179990476D1CB9F10001D6
:10348000A9F10109DEDC05E017F8010B5246179996
:1034900090476D1C0299481E02900029F4DC5346A7
:1034A0002146179A03989EE62D0000002B0000008D
:1034B000200000002DE9F041044600251E46174675
:1034C000880404D405E039462020B0476D1C641EF2
:1034D000F9D52846BDE8F0812DE9F04104460025E4
:1034E0001E469046C80301D5302700E020278804F7
:1034F00004D505E041463846B0476D1C641EF9D539
:103500002846BDE8F0812DE9F04116460C4607003B
:103510006FF0620818D004F11005E9B2FDF718FB4E
:10352000030011D00C210E20FDF7C0FA01465868A7
:10353000884306F0070140EA01305860E9B2384696
:10354000FDF740FD002802DA4046BDE8F08107EBB8
:10355000840080F82F600020F7E770B501F128049F
:1035600015460646E1B2FDF7F3FA030010D000213C
:103570000420FDF79BFA01465868884305F01F01B7
:1035800008435860E1B23046BDE87040FDF71ABD0F
:103590006FF0620070BD2DE9F04716460D4607003A
:1035A0006FF062094FD005F11004E1B2FDF7D0FAD7
:1035B000030048D0B87A07EB85050C2843D2DFE832
:1035C00000F006060606061A1A1A1A1A1A1A002116
:1035D0000920FDF76BFA01465868B6B28843C6F376
:1035E000090108435860E1B23846FDF7EBFC0028BA
:1035F00029DB2E8624E005210920FDF757FA014634
:10360000586806F0FF08884308F01F0140EA41109F
:10361000586000210420FDF749FA01465868C6F3B6
:103620000726884306F01F0108435860E1B2384678
:10363000FDF7C8FC002806DB85F8308085F831608E
:103640000020BDE8F0874846FBE72DE9F0470F462C
:1036500003F120051C4616468146E9B2FDF778FACB
:103660006FF06208A0B1416817B141F4407101E008
:1036700021F44071416016B141F4406101E021F450
:1036800040614160E9B24846FDF79CFC002802DA3F
:103690004046BDE8F08709EB8400C77386730020BD
:1036A000F7E770B50C4605006FF0620616D00121F1
:1036B000FDF74EFA030011D004210620FDF7F6F9BC
:1036C00001465868884304F0070140EA0110586039
:1036D00001212846FDF776FC002801DA304670BD4E
:1036E00085F8B840002070BD2DE9F0410C4601F18D
:1036F000100516460746E9B2FDF72AFA20B14168DF
:1037000036B141F4004105E06FF06200BDE8F081A0
:1037100021F400414160E9B23846FDF753FC00282E
:10372000F4DB07EB840080F82E600020EEE770B534
:103730000C4606460221FDF70BFA6FF0620568B1F0
:10374000416814B141F0C00101E021F0C0014160C5
:1037500002213046FDF736FC002801DA284670BD0C
:10376000002070BD2DE9F0410E4602F120051446FF
:103770008046E9B2FDF7ECF96FF0620768B1416885
:1037800016B141F4805101E021F480514160E9B269
:103790004046FDF717FC002802DA3846BDE8F08104
:1037A00008EB840046730020F8E72DE9F0410D4650
:1037B00002F1200614460746F1B2FDF7C9F90300ED
:1037C0006FF0620825D004210520FDF76FF901464E
:1037D0005868884305F0030140EA01105860F1B2CF
:1037E0003846FDF7EFFB002813DB07EB8400022DC2
:1037F000057413D101213846FDF7AAF948B1416893
:1038000041F40041416001213846FDF7DBFB00280F
:1038100002DA4046BDE8F0810120F8720020F9E7A5
:1038200038B504468DF800004FF6FF730122694653
:103830000248FEF766FE204638BD00003802002030
:10384000FDF774FDFFF719F8FEF7AAFEFEF7F8FE84
:10385000FEF71AFFFEF74CFF012251031048FDF757
:1038600052FDFCF7CFFF0220FDF756FC0620FDF7C6
:1038700033F80220FDF750FC0720FDF72DF8022059
:10388000FDF74AFCFDF7A6F801210648FFF74FFFB8
:103890004FF49674FCF76CFF2046FDF73DFCF9E70A
:1038A00000100140E802002040210148FDF726BD3C
:1038B0000008014030B587B00C4605461C220C4973
:1038C0006846FCF741FC0095CDE9015464B1002045
:1038D000FEF7CAFF0298C82382B206480199FEF794
:1038E000EDF80120FEF7C0FF07B0002030BD00005A
:1038F000C4390008980100202DE9F8430F46064618
:1039000000244FF0C80819E00120FEF7ADFF0020A9
:10391000FEF7AAFFC4EBC40006EB8005CDF80080DB
:1039200029896A688BB256F820100748FEF771F9AA
:10393000287B10B10120FEF797FF641CBC42E3D343
:103940000020BDE8F88300009801002030B587B062
:103950000C4605461C2208496846FCF7F5FB009515
:10396000CDE901542CB101216846FFF7C5FF07B02E
:1039700030BD0020FBE70000A83900080102020367
:103980000405060708090A0B0C0D0E0F10100000A5
:1039900000000000000001020304060708090000FF
:1039A000000001020304000000000000000000000D
:1039B0000000000001000000000000000000000006
:1039C00000000000000000000000000000000000F7
:1039D00001000000000000000000000000000000E6
:1039E000414443204D6F6465205265676973746577
:1039F00072204D6F6465207374616E646279200A71
:103A0000737769746368206D6F646520746F2063D9
:103A10006F6E74696E756F7573206D6F6465200AC3
:103A200000000000443A0008000000209801000057
:103A300018070008B43A000898010020300600007A
:103A40006C2C000832018210033F24F483F03F29DC
:103A5000582904112220320229045A4808720329E5
:103A6000089A040C720629249A070C29A063018085
:103A70009A11189A120C9A130C1973790C9A210C3A
:103A80009A220C9A230C32281A0A09290C5A291551
:103A9000290C9A2A0C9A2B0C9A30B49A310C9A322F
:103AA0000C9A330C9A380C9A390C9A3A0C9A3B0CB3
:043AB00041000000D1
:04000005080000ED02
:00000001FF
